{
  "_format": "hh-sol-artifact-1",
  "contractName": "NFT",
  "sourceName": "contracts/NFT.sol",
  "abi": [
    {
      "inputs": [
        {
          "internalType": "address",
          "name": "marketplaceAddress",
          "type": "address"
        }
      ],
      "stateMutability": "nonpayable",
      "type": "constructor"
    },
    {
      "anonymous": false,
      "inputs": [
        {
          "indexed": true,
          "internalType": "address",
          "name": "owner",
          "type": "address"
        },
        {
          "indexed": true,
          "internalType": "address",
          "name": "approved",
          "type": "address"
        },
        {
          "indexed": true,
          "internalType": "uint256",
          "name": "tokenId",
          "type": "uint256"
        }
      ],
      "name": "Approval",
      "type": "event"
    },
    {
      "anonymous": false,
      "inputs": [
        {
          "indexed": true,
          "internalType": "address",
          "name": "owner",
          "type": "address"
        },
        {
          "indexed": true,
          "internalType": "address",
          "name": "operator",
          "type": "address"
        },
        {
          "indexed": false,
          "internalType": "bool",
          "name": "approved",
          "type": "bool"
        }
      ],
      "name": "ApprovalForAll",
      "type": "event"
    },
    {
      "anonymous": false,
      "inputs": [
        {
          "indexed": true,
          "internalType": "address",
          "name": "from",
          "type": "address"
        },
        {
          "indexed": true,
          "internalType": "address",
          "name": "to",
          "type": "address"
        },
        {
          "indexed": true,
          "internalType": "uint256",
          "name": "tokenId",
          "type": "uint256"
        }
      ],
      "name": "Transfer",
      "type": "event"
    },
    {
      "inputs": [
        {
          "internalType": "address",
          "name": "to",
          "type": "address"
        },
        {
          "internalType": "uint256",
          "name": "tokenId",
          "type": "uint256"
        }
      ],
      "name": "approve",
      "outputs": [],
      "stateMutability": "nonpayable",
      "type": "function"
    },
    {
      "inputs": [
        {
          "internalType": "address",
          "name": "owner",
          "type": "address"
        }
      ],
      "name": "balanceOf",
      "outputs": [
        {
          "internalType": "uint256",
          "name": "",
          "type": "uint256"
        }
      ],
      "stateMutability": "view",
      "type": "function"
    },
    {
      "inputs": [
        {
          "internalType": "string",
          "name": "tokenURI",
          "type": "string"
        }
      ],
      "name": "createToken",
      "outputs": [
        {
          "internalType": "uint256",
          "name": "",
          "type": "uint256"
        }
      ],
      "stateMutability": "nonpayable",
      "type": "function"
    },
    {
      "inputs": [
        {
          "internalType": "uint256",
          "name": "tokenId",
          "type": "uint256"
        }
      ],
      "name": "creatorOf",
      "outputs": [
        {
          "internalType": "address",
          "name": "",
          "type": "address"
        }
      ],
      "stateMutability": "view",
      "type": "function"
    },
    {
      "inputs": [
        {
          "internalType": "uint256",
          "name": "tokenId",
          "type": "uint256"
        }
      ],
      "name": "getApproved",
      "outputs": [
        {
          "internalType": "address",
          "name": "",
          "type": "address"
        }
      ],
      "stateMutability": "view",
      "type": "function"
    },
    {
      "inputs": [
        {
          "internalType": "address",
          "name": "owner",
          "type": "address"
        },
        {
          "internalType": "address",
          "name": "operator",
          "type": "address"
        }
      ],
      "name": "isApprovedForAll",
      "outputs": [
        {
          "internalType": "bool",
          "name": "",
          "type": "bool"
        }
      ],
      "stateMutability": "view",
      "type": "function"
    },
    {
      "inputs": [],
      "name": "name",
      "outputs": [
        {
          "internalType": "string",
          "name": "",
          "type": "string"
        }
      ],
      "stateMutability": "view",
      "type": "function"
    },
    {
      "inputs": [
        {
          "internalType": "uint256",
          "name": "tokenId",
          "type": "uint256"
        }
      ],
      "name": "ownerOf",
      "outputs": [
        {
          "internalType": "address",
          "name": "",
          "type": "address"
        }
      ],
      "stateMutability": "view",
      "type": "function"
    },
    {
      "inputs": [
        {
          "internalType": "address",
          "name": "from",
          "type": "address"
        },
        {
          "internalType": "address",
          "name": "to",
          "type": "address"
        },
        {
          "internalType": "uint256",
          "name": "tokenId",
          "type": "uint256"
        }
      ],
      "name": "safeTransferFrom",
      "outputs": [],
      "stateMutability": "nonpayable",
      "type": "function"
    },
    {
      "inputs": [
        {
          "internalType": "address",
          "name": "from",
          "type": "address"
        },
        {
          "internalType": "address",
          "name": "to",
          "type": "address"
        },
        {
          "internalType": "uint256",
          "name": "tokenId",
          "type": "uint256"
        },
        {
          "internalType": "bytes",
          "name": "_data",
          "type": "bytes"
        }
      ],
      "name": "safeTransferFrom",
      "outputs": [],
      "stateMutability": "nonpayable",
      "type": "function"
    },
    {
      "inputs": [
        {
          "internalType": "address",
          "name": "operator",
          "type": "address"
        },
        {
          "internalType": "bool",
          "name": "approved",
          "type": "bool"
        }
      ],
      "name": "setApprovalForAll",
      "outputs": [],
      "stateMutability": "nonpayable",
      "type": "function"
    },
    {
      "inputs": [
        {
          "internalType": "bytes4",
          "name": "interfaceId",
          "type": "bytes4"
        }
      ],
      "name": "supportsInterface",
      "outputs": [
        {
          "internalType": "bool",
          "name": "",
          "type": "bool"
        }
      ],
      "stateMutability": "view",
      "type": "function"
    },
    {
      "inputs": [],
      "name": "symbol",
      "outputs": [
        {
          "internalType": "string",
          "name": "",
          "type": "string"
        }
      ],
      "stateMutability": "view",
      "type": "function"
    },
    {
      "inputs": [
        {
          "internalType": "uint256",
          "name": "tokenId",
          "type": "uint256"
        }
      ],
      "name": "tokenURI",
      "outputs": [
        {
          "internalType": "string",
          "name": "",
          "type": "string"
        }
      ],
      "stateMutability": "view",
      "type": "function"
    },
    {
      "inputs": [
        {
          "internalType": "address",
          "name": "from",
          "type": "address"
        },
        {
          "internalType": "address",
          "name": "to",
          "type": "address"
        },
        {
          "internalType": "uint256",
          "name": "tokenId",
          "type": "uint256"
        }
      ],
      "name": "transferFrom",
      "outputs": [],
      "stateMutability": "nonpayable",
      "type": "function"
    }
  ],
  "bytecode": "0x60806040523480156200001157600080fd5b506040516200195c3803806200195c833981016040819052620000349162000165565b6040805180820182526008815267494445414c41425360c01b602080830191825283518085019094526003845262494c4360e81b9084015281519192916200007f91600091620000bf565b50805162000095906001906020840190620000bf565b5050600980546001600160a01b0319166001600160a01b03939093169290921790915550620001d2565b828054620000cd9062000195565b90600052602060002090601f016020900481019282620000f157600085556200013c565b82601f106200010c57805160ff19168380011785556200013c565b828001600101855582156200013c579182015b828111156200013c5782518255916020019190600101906200011f565b506200014a9291506200014e565b5090565b5b808211156200014a57600081556001016200014f565b60006020828403121562000177578081fd5b81516001600160a01b03811681146200018e578182fd5b9392505050565b600181811c90821680620001aa57607f821691505b60208210811415620001cc57634e487b7160e01b600052602260045260246000fd5b50919050565b61177a80620001e26000396000f3fe608060405234801561001057600080fd5b50600436106100f55760003560e01c8063589a174311610097578063a22cb46511610066578063a22cb465146101ff578063b88d4fde14610212578063c87b56dd14610225578063e985e9c51461023857600080fd5b8063589a1743146101be5780636352211e146101d157806370a08231146101e457806395d89b41146101f757600080fd5b8063095ea7b3116100d3578063095ea7b31461016257806323b872dd1461017757806342842e0e1461018a57806345576f941461019d57600080fd5b806301ffc9a7146100fa57806306fdde0314610122578063081812fc14610137575b600080fd5b61010d61010836600461142c565b610274565b60405190151581526020015b60405180910390f35b61012a6102c6565b604051610119919061155a565b61014a6101453660046114aa565b610358565b6040516001600160a01b039091168152602001610119565b610175610170366004611403565b6103e5565b005b610175610185366004611315565b6104fb565b610175610198366004611315565b61052c565b6101b06101ab366004611464565b610547565b604051908152602001610119565b61014a6101cc3660046114aa565b61058f565b61014a6101df3660046114aa565b610608565b6101b06101f23660046112c9565b61067f565b61012a610706565b61017561020d3660046113c9565b610715565b610175610220366004611350565b6107da565b61012a6102333660046114aa565b610812565b61010d6102463660046112e3565b6001600160a01b03918216600090815260066020908152604080832093909416825291909152205460ff1690565b60006001600160e01b03198216636c1b27c760e11b14806102a557506001600160e01b03198216635b5e139f60e01b145b806102c057506301ffc9a760e01b6001600160e01b03198316145b92915050565b6060600080546102d59061167f565b80601f01602080910402602001604051908101604052809291908181526020018280546103019061167f565b801561034e5780601f106103235761010080835404028352916020019161034e565b820191906000526020600020905b81548152906001019060200180831161033157829003601f168201915b5050505050905090565b600061036382610989565b6103c95760405162461bcd60e51b815260206004820152602c60248201527f4552433732313a20617070726f76656420717565727920666f72206e6f6e657860448201526b34b9ba32b73a103a37b5b2b760a11b60648201526084015b60405180910390fd5b506000908152600560205260409020546001600160a01b031690565b60006103f082610608565b9050806001600160a01b0316836001600160a01b0316141561045e5760405162461bcd60e51b815260206004820152602160248201527f4552433732313a20617070726f76616c20746f2063757272656e74206f776e656044820152603960f91b60648201526084016103c0565b336001600160a01b038216148061047a575061047a8133610246565b6104ec5760405162461bcd60e51b815260206004820152603860248201527f4552433732313a20617070726f76652063616c6c6572206973206e6f74206f7760448201527f6e6572206e6f7220617070726f76656420666f7220616c6c000000000000000060648201526084016103c0565b6104f683836109a6565b505050565b6105053382610a14565b6105215760405162461bcd60e51b81526004016103c0906115bf565b6104f6838383610afa565b6104f6838383604051806020016040528060008152506107da565b6000610557600880546001019055565b600061056260085490565b905061056e3382610c9a565b6105788184610de1565b6009546102c0906001600160a01b03166001610715565b6000818152600360205260408120546001600160a01b0316806102c05760405162461bcd60e51b815260206004820152602b60248201527f4552433732313a2063726561746f7220717565727920666f72206e6f6e65786960448201526a39ba32b73a103a37b5b2b760a91b60648201526084016103c0565b6000818152600260205260408120546001600160a01b0316806102c05760405162461bcd60e51b815260206004820152602960248201527f4552433732313a206f776e657220717565727920666f72206e6f6e657869737460448201526832b73a103a37b5b2b760b91b60648201526084016103c0565b60006001600160a01b0382166106ea5760405162461bcd60e51b815260206004820152602a60248201527f4552433732313a2062616c616e636520717565727920666f7220746865207a65604482015269726f206164647265737360b01b60648201526084016103c0565b506001600160a01b031660009081526004602052604090205490565b6060600180546102d59061167f565b6001600160a01b03821633141561076e5760405162461bcd60e51b815260206004820152601960248201527f4552433732313a20617070726f766520746f2063616c6c65720000000000000060448201526064016103c0565b3360008181526006602090815260408083206001600160a01b03871680855290835292819020805460ff191686151590811790915590519081529192917f17307eab39ab6107e8899845ad3d59bd9653f200f220920489ca2b5937696c31910160405180910390a35050565b6107e43383610a14565b6108005760405162461bcd60e51b81526004016103c0906115bf565b61080c84848484610e6c565b50505050565b606061081d82610989565b6108835760405162461bcd60e51b815260206004820152603160248201527f45524337323155524953746f726167653a2055524920717565727920666f72206044820152703737b732bc34b9ba32b73a103a37b5b2b760791b60648201526084016103c0565b6000828152600760205260408120805461089c9061167f565b80601f01602080910402602001604051908101604052809291908181526020018280546108c89061167f565b80156109155780601f106108ea57610100808354040283529160200191610915565b820191906000526020600020905b8154815290600101906020018083116108f857829003601f168201915b50505050509050600061093360408051602081019091526000815290565b9050805160001415610946575092915050565b8151156109785780826040516020016109609291906114ee565b60405160208183030381529060405292505050919050565b61098184610e9f565b949350505050565b6000908152600260205260409020546001600160a01b0316151590565b600081815260056020526040902080546001600160a01b0319166001600160a01b03841690811790915581906109db82610608565b6001600160a01b03167f8c5be1e5ebec7d5bd14f71427d1e84f3dd0314c0f7b2291e5b200ac8c7c3b92560405160405180910390a45050565b6000610a1f82610989565b610a805760405162461bcd60e51b815260206004820152602c60248201527f4552433732313a206f70657261746f7220717565727920666f72206e6f6e657860448201526b34b9ba32b73a103a37b5b2b760a11b60648201526084016103c0565b6000610a8b83610608565b9050806001600160a01b0316846001600160a01b03161480610ac65750836001600160a01b0316610abb84610358565b6001600160a01b0316145b8061098157506001600160a01b0380821660009081526006602090815260408083209388168352929052205460ff16610981565b826001600160a01b0316610b0d82610608565b6001600160a01b031614610b755760405162461bcd60e51b815260206004820152602960248201527f4552433732313a207472616e73666572206f6620746f6b656e2074686174206960448201526839903737ba1037bbb760b91b60648201526084016103c0565b6001600160a01b038216610bd75760405162461bcd60e51b8152602060048201526024808201527f4552433732313a207472616e7366657220746f20746865207a65726f206164646044820152637265737360e01b60648201526084016103c0565b610be26000826109a6565b6001600160a01b0383166000908152600460205260408120805460019290610c0b90849061163c565b90915550506001600160a01b0382166000908152600460205260408120805460019290610c39908490611610565b909155505060008181526002602052604080822080546001600160a01b0319166001600160a01b0386811691821790925591518493918716917fddf252ad1be2c89b69c2b068fc378daa952ba7f163c4a11628f55a4df523b3ef91a4505050565b6001600160a01b038216610cf05760405162461bcd60e51b815260206004820181905260248201527f4552433732313a206d696e7420746f20746865207a65726f206164647265737360448201526064016103c0565b610cf981610989565b15610d465760405162461bcd60e51b815260206004820152601c60248201527f4552433732313a20746f6b656e20616c7265616479206d696e7465640000000060448201526064016103c0565b6001600160a01b0382166000908152600460205260408120805460019290610d6f908490611610565b9091555050600081815260026020908152604080832080546001600160a01b0387166001600160a01b03199182168117909255600390935281842080549093168117909255518392907fddf252ad1be2c89b69c2b068fc378daa952ba7f163c4a11628f55a4df523b3ef908290a45050565b610dea82610989565b610e4d5760405162461bcd60e51b815260206004820152602e60248201527f45524337323155524953746f726167653a2055524920736574206f66206e6f6e60448201526d32bc34b9ba32b73a103a37b5b2b760911b60648201526084016103c0565b600082815260076020908152604090912082516104f69284019061119e565b610e77848484610afa565b610e8384848484610f77565b61080c5760405162461bcd60e51b81526004016103c09061156d565b6060610eaa82610989565b610f0e5760405162461bcd60e51b815260206004820152602f60248201527f4552433732314d657461646174613a2055524920717565727920666f72206e6f60448201526e3732bc34b9ba32b73a103a37b5b2b760891b60648201526084016103c0565b6000610f2560408051602081019091526000815290565b90506000815111610f455760405180602001604052806000815250610f70565b80610f4f84611084565b604051602001610f609291906114ee565b6040516020818303038152906040525b9392505050565b60006001600160a01b0384163b1561107957604051630a85bd0160e11b81526001600160a01b0385169063150b7a0290610fbb90339089908890889060040161151d565b602060405180830381600087803b158015610fd557600080fd5b505af1925050508015611005575060408051601f3d908101601f1916820190925261100291810190611448565b60015b61105f573d808015611033576040519150601f19603f3d011682016040523d82523d6000602084013e611038565b606091505b5080516110575760405162461bcd60e51b81526004016103c09061156d565b805181602001fd5b6001600160e01b031916630a85bd0160e11b149050610981565b506001949350505050565b6060816110a85750506040805180820190915260018152600360fc1b602082015290565b8160005b81156110d257806110bc816116ba565b91506110cb9050600a83611628565b91506110ac565b60008167ffffffffffffffff8111156110fb57634e487b7160e01b600052604160045260246000fd5b6040519080825280601f01601f191660200182016040528015611125576020820181803683370190505b5090505b84156109815761113a60018361163c565b9150611147600a866116d5565b611152906030611610565b60f81b81838151811061117557634e487b7160e01b600052603260045260246000fd5b60200101906001600160f81b031916908160001a905350611197600a86611628565b9450611129565b8280546111aa9061167f565b90600052602060002090601f0160209004810192826111cc5760008555611212565b82601f106111e557805160ff1916838001178555611212565b82800160010185558215611212579182015b828111156112125782518255916020019190600101906111f7565b5061121e929150611222565b5090565b5b8082111561121e5760008155600101611223565b600067ffffffffffffffff8084111561125257611252611715565b604051601f8501601f19908116603f0116810190828211818310171561127a5761127a611715565b8160405280935085815286868601111561129357600080fd5b858560208301376000602087830101525050509392505050565b80356001600160a01b03811681146112c457600080fd5b919050565b6000602082840312156112da578081fd5b610f70826112ad565b600080604083850312156112f5578081fd5b6112fe836112ad565b915061130c602084016112ad565b90509250929050565b600080600060608486031215611329578081fd5b611332846112ad565b9250611340602085016112ad565b9150604084013590509250925092565b60008060008060808587031215611365578081fd5b61136e856112ad565b935061137c602086016112ad565b925060408501359150606085013567ffffffffffffffff81111561139e578182fd5b8501601f810187136113ae578182fd5b6113bd87823560208401611237565b91505092959194509250565b600080604083850312156113db578182fd5b6113e4836112ad565b9150602083013580151581146113f8578182fd5b809150509250929050565b60008060408385031215611415578182fd5b61141e836112ad565b946020939093013593505050565b60006020828403121561143d578081fd5b8135610f708161172b565b600060208284031215611459578081fd5b8151610f708161172b565b600060208284031215611475578081fd5b813567ffffffffffffffff81111561148b578182fd5b8201601f8101841361149b578182fd5b61098184823560208401611237565b6000602082840312156114bb578081fd5b5035919050565b600081518084526114da816020860160208601611653565b601f01601f19169290920160200192915050565b60008351611500818460208801611653565b835190830190611514818360208801611653565b01949350505050565b6001600160a01b0385811682528416602082015260408101839052608060608201819052600090611550908301846114c2565b9695505050505050565b602081526000610f7060208301846114c2565b60208082526032908201527f4552433732313a207472616e7366657220746f206e6f6e20455243373231526560408201527131b2b4bb32b91034b6b83632b6b2b73a32b960711b606082015260800190565b60208082526031908201527f4552433732313a207472616e736665722063616c6c6572206973206e6f74206f6040820152701ddb995c881b9bdc88185c1c1c9bdd9959607a1b606082015260800190565b60008219821115611623576116236116e9565b500190565b600082611637576116376116ff565b500490565b60008282101561164e5761164e6116e9565b500390565b60005b8381101561166e578181015183820152602001611656565b8381111561080c5750506000910152565b600181811c9082168061169357607f821691505b602082108114156116b457634e487b7160e01b600052602260045260246000fd5b50919050565b60006000198214156116ce576116ce6116e9565b5060010190565b6000826116e4576116e46116ff565b500690565b634e487b7160e01b600052601160045260246000fd5b634e487b7160e01b600052601260045260246000fd5b634e487b7160e01b600052604160045260246000fd5b6001600160e01b03198116811461174157600080fd5b5056fea2646970667358221220130e781500d54a549bd490e56181e9e2cd9d8d4c85ec7f3e41d7a06051f0385964736f6c63430008040033",
  "linkReferences": {},
  "deployedLinkReferences": {}
}