{
  "_format": "hh-sol-artifact-1",
  "contractName": "ERC721",
  "sourceName": "contracts/Market.sol",
  "abi": [
    {
      "inputs": [
        {
          "internalType": "string",
          "name": "name_",
          "type": "string"
        },
        {
          "internalType": "string",
          "name": "symbol_",
          "type": "string"
        }
      ],
      "stateMutability": "nonpayable",
      "type": "constructor"
    },
    {
      "anonymous": false,
      "inputs": [
        {
          "indexed": true,
          "internalType": "address",
          "name": "owner",
          "type": "address"
        },
        {
          "indexed": true,
          "internalType": "address",
          "name": "approved",
          "type": "address"
        },
        {
          "indexed": true,
          "internalType": "uint256",
          "name": "tokenId",
          "type": "uint256"
        }
      ],
      "name": "Approval",
      "type": "event"
    },
    {
      "anonymous": false,
      "inputs": [
        {
          "indexed": true,
          "internalType": "address",
          "name": "owner",
          "type": "address"
        },
        {
          "indexed": true,
          "internalType": "address",
          "name": "operator",
          "type": "address"
        },
        {
          "indexed": false,
          "internalType": "bool",
          "name": "approved",
          "type": "bool"
        }
      ],
      "name": "ApprovalForAll",
      "type": "event"
    },
    {
      "anonymous": false,
      "inputs": [
        {
          "indexed": true,
          "internalType": "address",
          "name": "from",
          "type": "address"
        },
        {
          "indexed": true,
          "internalType": "address",
          "name": "to",
          "type": "address"
        },
        {
          "indexed": true,
          "internalType": "uint256",
          "name": "tokenId",
          "type": "uint256"
        }
      ],
      "name": "Transfer",
      "type": "event"
    },
    {
      "inputs": [
        {
          "internalType": "address",
          "name": "to",
          "type": "address"
        },
        {
          "internalType": "uint256",
          "name": "tokenId",
          "type": "uint256"
        }
      ],
      "name": "approve",
      "outputs": [],
      "stateMutability": "nonpayable",
      "type": "function"
    },
    {
      "inputs": [
        {
          "internalType": "address",
          "name": "owner",
          "type": "address"
        }
      ],
      "name": "balanceOf",
      "outputs": [
        {
          "internalType": "uint256",
          "name": "",
          "type": "uint256"
        }
      ],
      "stateMutability": "view",
      "type": "function"
    },
    {
      "inputs": [
        {
          "internalType": "uint256",
          "name": "tokenId",
          "type": "uint256"
        }
      ],
      "name": "creatorOf",
      "outputs": [
        {
          "internalType": "address",
          "name": "",
          "type": "address"
        }
      ],
      "stateMutability": "view",
      "type": "function"
    },
    {
      "inputs": [
        {
          "internalType": "uint256",
          "name": "tokenId",
          "type": "uint256"
        }
      ],
      "name": "getApproved",
      "outputs": [
        {
          "internalType": "address",
          "name": "",
          "type": "address"
        }
      ],
      "stateMutability": "view",
      "type": "function"
    },
    {
      "inputs": [
        {
          "internalType": "address",
          "name": "owner",
          "type": "address"
        },
        {
          "internalType": "address",
          "name": "operator",
          "type": "address"
        }
      ],
      "name": "isApprovedForAll",
      "outputs": [
        {
          "internalType": "bool",
          "name": "",
          "type": "bool"
        }
      ],
      "stateMutability": "view",
      "type": "function"
    },
    {
      "inputs": [],
      "name": "name",
      "outputs": [
        {
          "internalType": "string",
          "name": "",
          "type": "string"
        }
      ],
      "stateMutability": "view",
      "type": "function"
    },
    {
      "inputs": [
        {
          "internalType": "uint256",
          "name": "tokenId",
          "type": "uint256"
        }
      ],
      "name": "ownerOf",
      "outputs": [
        {
          "internalType": "address",
          "name": "",
          "type": "address"
        }
      ],
      "stateMutability": "view",
      "type": "function"
    },
    {
      "inputs": [
        {
          "internalType": "address",
          "name": "from",
          "type": "address"
        },
        {
          "internalType": "address",
          "name": "to",
          "type": "address"
        },
        {
          "internalType": "uint256",
          "name": "tokenId",
          "type": "uint256"
        }
      ],
      "name": "safeTransferFrom",
      "outputs": [],
      "stateMutability": "nonpayable",
      "type": "function"
    },
    {
      "inputs": [
        {
          "internalType": "address",
          "name": "from",
          "type": "address"
        },
        {
          "internalType": "address",
          "name": "to",
          "type": "address"
        },
        {
          "internalType": "uint256",
          "name": "tokenId",
          "type": "uint256"
        },
        {
          "internalType": "bytes",
          "name": "_data",
          "type": "bytes"
        }
      ],
      "name": "safeTransferFrom",
      "outputs": [],
      "stateMutability": "nonpayable",
      "type": "function"
    },
    {
      "inputs": [
        {
          "internalType": "address",
          "name": "operator",
          "type": "address"
        },
        {
          "internalType": "bool",
          "name": "approved",
          "type": "bool"
        }
      ],
      "name": "setApprovalForAll",
      "outputs": [],
      "stateMutability": "nonpayable",
      "type": "function"
    },
    {
      "inputs": [
        {
          "internalType": "bytes4",
          "name": "interfaceId",
          "type": "bytes4"
        }
      ],
      "name": "supportsInterface",
      "outputs": [
        {
          "internalType": "bool",
          "name": "",
          "type": "bool"
        }
      ],
      "stateMutability": "view",
      "type": "function"
    },
    {
      "inputs": [],
      "name": "symbol",
      "outputs": [
        {
          "internalType": "string",
          "name": "",
          "type": "string"
        }
      ],
      "stateMutability": "view",
      "type": "function"
    },
    {
      "inputs": [
        {
          "internalType": "uint256",
          "name": "tokenId",
          "type": "uint256"
        }
      ],
      "name": "tokenURI",
      "outputs": [
        {
          "internalType": "string",
          "name": "",
          "type": "string"
        }
      ],
      "stateMutability": "view",
      "type": "function"
    },
    {
      "inputs": [
        {
          "internalType": "address",
          "name": "from",
          "type": "address"
        },
        {
          "internalType": "address",
          "name": "to",
          "type": "address"
        },
        {
          "internalType": "uint256",
          "name": "tokenId",
          "type": "uint256"
        }
      ],
      "name": "transferFrom",
      "outputs": [],
      "stateMutability": "nonpayable",
      "type": "function"
    }
  ],
  "bytecode": "0x60806040523480156200001157600080fd5b506040516200156e3803806200156e8339810160408190526200003491620001c1565b81516200004990600090602085019062000068565b5080516200005f90600190602084019062000068565b5050506200027b565b828054620000769062000228565b90600052602060002090601f0160209004810192826200009a5760008555620000e5565b82601f10620000b557805160ff1916838001178555620000e5565b82800160010185558215620000e5579182015b82811115620000e5578251825591602001919060010190620000c8565b50620000f3929150620000f7565b5090565b5b80821115620000f35760008155600101620000f8565b600082601f8301126200011f578081fd5b81516001600160401b03808211156200013c576200013c62000265565b604051601f8301601f19908116603f0116810190828211818310171562000167576200016762000265565b8160405283815260209250868385880101111562000183578485fd5b8491505b83821015620001a6578582018301518183018401529082019062000187565b83821115620001b757848385830101525b9695505050505050565b60008060408385031215620001d4578182fd5b82516001600160401b0380821115620001eb578384fd5b620001f9868387016200010e565b935060208501519150808211156200020f578283fd5b506200021e858286016200010e565b9150509250929050565b600181811c908216806200023d57607f821691505b602082108114156200025f57634e487b7160e01b600052602260045260246000fd5b50919050565b634e487b7160e01b600052604160045260246000fd5b6112e3806200028b6000396000f3fe608060405234801561001057600080fd5b50600436106100ea5760003560e01c80636352211e1161008c578063a22cb46511610066578063a22cb465146101e1578063b88d4fde146101f4578063c87b56dd14610207578063e985e9c51461021a57600080fd5b80636352211e146101a557806370a08231146101b857806395d89b41146101d957600080fd5b8063095ea7b3116100c8578063095ea7b31461015757806323b872dd1461016c57806342842e0e1461017f578063589a17431461019257600080fd5b806301ffc9a7146100ef57806306fdde0314610117578063081812fc1461012c575b600080fd5b6101026100fd366004610fdb565b610256565b60405190151581526020015b60405180910390f35b61011f6102a8565b60405161010e91906110c3565b61013f61013a366004611013565b61033a565b6040516001600160a01b03909116815260200161010e565b61016a610165366004610fb2565b6103d4565b005b61016a61017a366004610e68565b6104ea565b61016a61018d366004610e68565b61051b565b61013f6101a0366004611013565b610536565b61013f6101b3366004611013565b6105af565b6101cb6101c6366004610e1c565b610626565b60405190815260200161010e565b61011f6106ad565b61016a6101ef366004610f78565b6106bc565b61016a610202366004610ea3565b610781565b61011f610215366004611013565b6107b9565b610102610228366004610e36565b6001600160a01b03918216600090815260066020908152604080832093909416825291909152205460ff1690565b60006001600160e01b03198216636c1b27c760e11b148061028757506001600160e01b03198216635b5e139f60e01b145b806102a257506301ffc9a760e01b6001600160e01b03198316145b92915050565b6060600080546102b7906111e8565b80601f01602080910402602001604051908101604052809291908181526020018280546102e3906111e8565b80156103305780601f1061030557610100808354040283529160200191610330565b820191906000526020600020905b81548152906001019060200180831161031357829003601f168201915b5050505050905090565b6000818152600260205260408120546001600160a01b03166103b85760405162461bcd60e51b815260206004820152602c60248201527f4552433732313a20617070726f76656420717565727920666f72206e6f6e657860448201526b34b9ba32b73a103a37b5b2b760a11b60648201526084015b60405180910390fd5b506000908152600560205260409020546001600160a01b031690565b60006103df826105af565b9050806001600160a01b0316836001600160a01b0316141561044d5760405162461bcd60e51b815260206004820152602160248201527f4552433732313a20617070726f76616c20746f2063757272656e74206f776e656044820152603960f91b60648201526084016103af565b336001600160a01b038216148061046957506104698133610228565b6104db5760405162461bcd60e51b815260206004820152603860248201527f4552433732313a20617070726f76652063616c6c6572206973206e6f74206f7760448201527f6e6572206e6f7220617070726f76656420666f7220616c6c000000000000000060648201526084016103af565b6104e583836108a1565b505050565b6104f4338261090f565b6105105760405162461bcd60e51b81526004016103af90611128565b6104e5838383610a06565b6104e583838360405180602001604052806000815250610781565b6000818152600360205260408120546001600160a01b0316806102a25760405162461bcd60e51b815260206004820152602b60248201527f4552433732313a2063726561746f7220717565727920666f72206e6f6e65786960448201526a39ba32b73a103a37b5b2b760a91b60648201526084016103af565b6000818152600260205260408120546001600160a01b0316806102a25760405162461bcd60e51b815260206004820152602960248201527f4552433732313a206f776e657220717565727920666f72206e6f6e657869737460448201526832b73a103a37b5b2b760b91b60648201526084016103af565b60006001600160a01b0382166106915760405162461bcd60e51b815260206004820152602a60248201527f4552433732313a2062616c616e636520717565727920666f7220746865207a65604482015269726f206164647265737360b01b60648201526084016103af565b506001600160a01b031660009081526004602052604090205490565b6060600180546102b7906111e8565b6001600160a01b0382163314156107155760405162461bcd60e51b815260206004820152601960248201527f4552433732313a20617070726f766520746f2063616c6c65720000000000000060448201526064016103af565b3360008181526006602090815260408083206001600160a01b03871680855290835292819020805460ff191686151590811790915590519081529192917f17307eab39ab6107e8899845ad3d59bd9653f200f220920489ca2b5937696c31910160405180910390a35050565b61078b338361090f565b6107a75760405162461bcd60e51b81526004016103af90611128565b6107b384848484610ba6565b50505050565b6000818152600260205260409020546060906001600160a01b03166108385760405162461bcd60e51b815260206004820152602f60248201527f4552433732314d657461646174613a2055524920717565727920666f72206e6f60448201526e3732bc34b9ba32b73a103a37b5b2b760891b60648201526084016103af565b600061084f60408051602081019091526000815290565b9050600081511161086f576040518060200160405280600081525061089a565b8061087984610bd9565b60405160200161088a929190611057565b6040516020818303038152906040525b9392505050565b600081815260056020526040902080546001600160a01b0319166001600160a01b03841690811790915581906108d6826105af565b6001600160a01b03167f8c5be1e5ebec7d5bd14f71427d1e84f3dd0314c0f7b2291e5b200ac8c7c3b92560405160405180910390a45050565b6000818152600260205260408120546001600160a01b03166109885760405162461bcd60e51b815260206004820152602c60248201527f4552433732313a206f70657261746f7220717565727920666f72206e6f6e657860448201526b34b9ba32b73a103a37b5b2b760a11b60648201526084016103af565b6000610993836105af565b9050806001600160a01b0316846001600160a01b031614806109ce5750836001600160a01b03166109c38461033a565b6001600160a01b0316145b806109fe57506001600160a01b0380821660009081526006602090815260408083209388168352929052205460ff165b949350505050565b826001600160a01b0316610a19826105af565b6001600160a01b031614610a815760405162461bcd60e51b815260206004820152602960248201527f4552433732313a207472616e73666572206f6620746f6b656e2074686174206960448201526839903737ba1037bbb760b91b60648201526084016103af565b6001600160a01b038216610ae35760405162461bcd60e51b8152602060048201526024808201527f4552433732313a207472616e7366657220746f20746865207a65726f206164646044820152637265737360e01b60648201526084016103af565b610aee6000826108a1565b6001600160a01b0383166000908152600460205260408120805460019290610b179084906111a5565b90915550506001600160a01b0382166000908152600460205260408120805460019290610b45908490611179565b909155505060008181526002602052604080822080546001600160a01b0319166001600160a01b0386811691821790925591518493918716917fddf252ad1be2c89b69c2b068fc378daa952ba7f163c4a11628f55a4df523b3ef91a4505050565b610bb1848484610a06565b610bbd84848484610cf3565b6107b35760405162461bcd60e51b81526004016103af906110d6565b606081610bfd5750506040805180820190915260018152600360fc1b602082015290565b8160005b8115610c275780610c1181611223565b9150610c209050600a83611191565b9150610c01565b60008167ffffffffffffffff811115610c5057634e487b7160e01b600052604160045260246000fd5b6040519080825280601f01601f191660200182016040528015610c7a576020820181803683370190505b5090505b84156109fe57610c8f6001836111a5565b9150610c9c600a8661123e565b610ca7906030611179565b60f81b818381518110610cca57634e487b7160e01b600052603260045260246000fd5b60200101906001600160f81b031916908160001a905350610cec600a86611191565b9450610c7e565b60006001600160a01b0384163b15610df557604051630a85bd0160e11b81526001600160a01b0385169063150b7a0290610d37903390899088908890600401611086565b602060405180830381600087803b158015610d5157600080fd5b505af1925050508015610d81575060408051601f3d908101601f19168201909252610d7e91810190610ff7565b60015b610ddb573d808015610daf576040519150601f19603f3d011682016040523d82523d6000602084013e610db4565b606091505b508051610dd35760405162461bcd60e51b81526004016103af906110d6565b805181602001fd5b6001600160e01b031916630a85bd0160e11b1490506109fe565b506001949350505050565b80356001600160a01b0381168114610e1757600080fd5b919050565b600060208284031215610e2d578081fd5b61089a82610e00565b60008060408385031215610e48578081fd5b610e5183610e00565b9150610e5f60208401610e00565b90509250929050565b600080600060608486031215610e7c578081fd5b610e8584610e00565b9250610e9360208501610e00565b9150604084013590509250925092565b60008060008060808587031215610eb8578081fd5b610ec185610e00565b9350610ecf60208601610e00565b925060408501359150606085013567ffffffffffffffff80821115610ef2578283fd5b818701915087601f830112610f05578283fd5b813581811115610f1757610f1761127e565b604051601f8201601f19908116603f01168101908382118183101715610f3f57610f3f61127e565b816040528281528a6020848701011115610f57578586fd5b82602086016020830137918201602001949094529598949750929550505050565b60008060408385031215610f8a578182fd5b610f9383610e00565b915060208301358015158114610fa7578182fd5b809150509250929050565b60008060408385031215610fc4578182fd5b610fcd83610e00565b946020939093013593505050565b600060208284031215610fec578081fd5b813561089a81611294565b600060208284031215611008578081fd5b815161089a81611294565b600060208284031215611024578081fd5b5035919050565b600081518084526110438160208601602086016111bc565b601f01601f19169290920160200192915050565b600083516110698184602088016111bc565b83519083019061107d8183602088016111bc565b01949350505050565b6001600160a01b03858116825284166020820152604081018390526080606082018190526000906110b99083018461102b565b9695505050505050565b60208152600061089a602083018461102b565b60208082526032908201527f4552433732313a207472616e7366657220746f206e6f6e20455243373231526560408201527131b2b4bb32b91034b6b83632b6b2b73a32b960711b606082015260800190565b60208082526031908201527f4552433732313a207472616e736665722063616c6c6572206973206e6f74206f6040820152701ddb995c881b9bdc88185c1c1c9bdd9959607a1b606082015260800190565b6000821982111561118c5761118c611252565b500190565b6000826111a0576111a0611268565b500490565b6000828210156111b7576111b7611252565b500390565b60005b838110156111d75781810151838201526020016111bf565b838111156107b35750506000910152565b600181811c908216806111fc57607f821691505b6020821081141561121d57634e487b7160e01b600052602260045260246000fd5b50919050565b600060001982141561123757611237611252565b5060010190565b60008261124d5761124d611268565b500690565b634e487b7160e01b600052601160045260246000fd5b634e487b7160e01b600052601260045260246000fd5b634e487b7160e01b600052604160045260246000fd5b6001600160e01b0319811681146112aa57600080fd5b5056fea2646970667358221220a235262bcb27dfe009ff862e91c15d29c35c08fedb1b41586f29dfe7fb299b1b64736f6c63430008040033",
  "linkReferences": {},
  "deployedLinkReferences": {}
}