{
  "_format": "hh-sol-artifact-1",
  "contractName": "NFTMarket",
  "sourceName": "contracts/Market.sol",
  "abi": [
    {
      "inputs": [],
      "stateMutability": "nonpayable",
      "type": "constructor"
    },
    {
      "anonymous": false,
      "inputs": [
        {
          "indexed": true,
          "internalType": "uint256",
          "name": "itemId",
          "type": "uint256"
        },
        {
          "indexed": true,
          "internalType": "address",
          "name": "nftContract",
          "type": "address"
        },
        {
          "indexed": true,
          "internalType": "uint256",
          "name": "tokenId",
          "type": "uint256"
        },
        {
          "indexed": false,
          "internalType": "address",
          "name": "seller",
          "type": "address"
        },
        {
          "indexed": false,
          "internalType": "address",
          "name": "owner",
          "type": "address"
        },
        {
          "indexed": false,
          "internalType": "uint256",
          "name": "price",
          "type": "uint256"
        },
        {
          "indexed": false,
          "internalType": "uint256",
          "name": "creator_royalty",
          "type": "uint256"
        },
        {
          "indexed": false,
          "internalType": "bool",
          "name": "sold",
          "type": "bool"
        }
      ],
      "name": "MarketItemCreated",
      "type": "event"
    },
    {
      "inputs": [
        {
          "internalType": "address",
          "name": "nftContract",
          "type": "address"
        },
        {
          "internalType": "uint256",
          "name": "tokenId",
          "type": "uint256"
        },
        {
          "internalType": "uint256",
          "name": "price",
          "type": "uint256"
        },
        {
          "internalType": "uint256",
          "name": "royalty",
          "type": "uint256"
        }
      ],
      "name": "createMarketItem",
      "outputs": [],
      "stateMutability": "payable",
      "type": "function"
    },
    {
      "inputs": [
        {
          "internalType": "address",
          "name": "nftContract",
          "type": "address"
        },
        {
          "internalType": "uint256",
          "name": "itemId",
          "type": "uint256"
        }
      ],
      "name": "createMarketSale",
      "outputs": [],
      "stateMutability": "payable",
      "type": "function"
    },
    {
      "inputs": [],
      "name": "fetchItemsCreated",
      "outputs": [
        {
          "components": [
            {
              "internalType": "uint256",
              "name": "itemId",
              "type": "uint256"
            },
            {
              "internalType": "address",
              "name": "nftContract",
              "type": "address"
            },
            {
              "internalType": "uint256",
              "name": "tokenId",
              "type": "uint256"
            },
            {
              "internalType": "address payable",
              "name": "seller",
              "type": "address"
            },
            {
              "internalType": "address payable",
              "name": "owner",
              "type": "address"
            },
            {
              "internalType": "uint256",
              "name": "price",
              "type": "uint256"
            },
            {
              "internalType": "uint256",
              "name": "creator_royalty",
              "type": "uint256"
            },
            {
              "internalType": "bool",
              "name": "sold",
              "type": "bool"
            }
          ],
          "internalType": "struct NFTMarket.MarketItem[]",
          "name": "",
          "type": "tuple[]"
        }
      ],
      "stateMutability": "view",
      "type": "function"
    },
    {
      "inputs": [],
      "name": "fetchMarketItems",
      "outputs": [
        {
          "components": [
            {
              "internalType": "uint256",
              "name": "itemId",
              "type": "uint256"
            },
            {
              "internalType": "address",
              "name": "nftContract",
              "type": "address"
            },
            {
              "internalType": "uint256",
              "name": "tokenId",
              "type": "uint256"
            },
            {
              "internalType": "address payable",
              "name": "seller",
              "type": "address"
            },
            {
              "internalType": "address payable",
              "name": "owner",
              "type": "address"
            },
            {
              "internalType": "uint256",
              "name": "price",
              "type": "uint256"
            },
            {
              "internalType": "uint256",
              "name": "creator_royalty",
              "type": "uint256"
            },
            {
              "internalType": "bool",
              "name": "sold",
              "type": "bool"
            }
          ],
          "internalType": "struct NFTMarket.MarketItem[]",
          "name": "",
          "type": "tuple[]"
        }
      ],
      "stateMutability": "view",
      "type": "function"
    },
    {
      "inputs": [],
      "name": "fetchMyNFTs",
      "outputs": [
        {
          "components": [
            {
              "internalType": "uint256",
              "name": "itemId",
              "type": "uint256"
            },
            {
              "internalType": "address",
              "name": "nftContract",
              "type": "address"
            },
            {
              "internalType": "uint256",
              "name": "tokenId",
              "type": "uint256"
            },
            {
              "internalType": "address payable",
              "name": "seller",
              "type": "address"
            },
            {
              "internalType": "address payable",
              "name": "owner",
              "type": "address"
            },
            {
              "internalType": "uint256",
              "name": "price",
              "type": "uint256"
            },
            {
              "internalType": "uint256",
              "name": "creator_royalty",
              "type": "uint256"
            },
            {
              "internalType": "bool",
              "name": "sold",
              "type": "bool"
            }
          ],
          "internalType": "struct NFTMarket.MarketItem[]",
          "name": "",
          "type": "tuple[]"
        }
      ],
      "stateMutability": "view",
      "type": "function"
    },
    {
      "inputs": [],
      "name": "getListingPrice",
      "outputs": [
        {
          "internalType": "uint256",
          "name": "",
          "type": "uint256"
        }
      ],
      "stateMutability": "view",
      "type": "function"
    },
    {
      "inputs": [
        {
          "internalType": "uint256",
          "name": "item_id",
          "type": "uint256"
        }
      ],
      "name": "nftItemInfo",
      "outputs": [
        {
          "internalType": "uint256",
          "name": "itemId",
          "type": "uint256"
        },
        {
          "internalType": "address",
          "name": "nftContract",
          "type": "address"
        },
        {
          "internalType": "uint256",
          "name": "tokenId",
          "type": "uint256"
        },
        {
          "internalType": "address",
          "name": "item_seller",
          "type": "address"
        },
        {
          "internalType": "address",
          "name": "item_owner",
          "type": "address"
        },
        {
          "internalType": "uint256",
          "name": "price",
          "type": "uint256"
        },
        {
          "internalType": "uint256",
          "name": "creator_royalty",
          "type": "uint256"
        },
        {
          "internalType": "bool",
          "name": "sold",
          "type": "bool"
        }
      ],
      "stateMutability": "view",
      "type": "function"
    },
    {
      "inputs": [
        {
          "internalType": "uint256",
          "name": "itemId",
          "type": "uint256"
        },
        {
          "internalType": "uint256",
          "name": "price",
          "type": "uint256"
        }
      ],
      "name": "resellMarketItem",
      "outputs": [],
      "stateMutability": "payable",
      "type": "function"
    }
  ],
  "bytecode": "0x6080604052600060045534801561001557600080fd5b506001600055600380546001600160a01b031916331790556115738061003c6000396000f3fe60806040526004361061007b5760003560e01c8063599ba2341161004e578063599ba2341461014a5780636b52d8321461015f578063c23b139e14610172578063f064c32e1461018557600080fd5b80630f08efe01461008057806312e85585146100ab578063202e3740146100c957806325c3dca6146100de575b600080fd5b34801561008c57600080fd5b5061009561019a565b6040516100a29190611320565b60405180910390f35b3480156100b757600080fd5b506004546040519081526020016100a2565b3480156100d557600080fd5b5061009561034d565b3480156100ea57600080fd5b506100fe6100f93660046112e7565b61053e565b604080519889526001600160a01b0397881660208a015288019590955292851660608701529316608085015260a084019290925260c0830191909152151560e0820152610100016100a2565b61015d6101583660046112ad565b6105f7565b005b61015d61016d3660046112ff565b6109b2565b61015d610180366004611282565b610bd8565b34801561019157600080fd5b50610095610fb5565b606060006101a760015490565b905060006101b460025490565b6001546101c191906114dd565b90506000808267ffffffffffffffff8111156101ed57634e487b7160e01b600052604160045260246000fd5b60405190808252806020026020018201604052801561022657816020015b6102136111fd565b81526020019060019003908161020b5790505b50905060005b84811015610344576000600581610244846001611486565b81526020810191909152604001600020600401546001600160a01b03161415610332576000610274826001611486565b6000818152600560208181526040928390208351610100810185528154815260018201546001600160a01b0390811693820193909352600282015494810194909452600381015482166060850152600481015490911660808401529081015460a0830152600681015460c0830152600781015460ff16151560e083015285519293509185908790811061031757634e487b7160e01b600052603260045260246000fd5b602090810291909101015261032d600186611486565b945050505b8061033c816114f4565b91505061022c565b50949350505050565b6060600061035a60015490565b905060008060005b838110156103bd57336005600061037a846001611486565b81526020810191909152604001600020600401546001600160a01b031614156103ab576103a8600184611486565b92505b806103b5816114f4565b915050610362565b5060008267ffffffffffffffff8111156103e757634e487b7160e01b600052604160045260246000fd5b60405190808252806020026020018201604052801561042057816020015b61040d6111fd565b8152602001906001900390816104055790505b50905060005b8481101561034457336005600061043e846001611486565b81526020810191909152604001600020600401546001600160a01b0316141561052c57600061046e826001611486565b6000818152600560208181526040928390208351610100810185528154815260018201546001600160a01b0390811693820193909352600282015494810194909452600381015482166060850152600481015490911660808401529081015460a0830152600681015460c0830152600781015460ff16151560e083015285519293509185908790811061051157634e487b7160e01b600052603260045260246000fd5b6020908102919091010152610527600186611486565b945050505b80610536816114f4565b915050610426565b60008060008060008060008061055360015490565b8910156105975760405162461bcd60e51b815260206004820152600d60248201526c6e6f204e46542065786973747360981b60448201526064015b60405180910390fd5b5050506000958652505060056020819052604090942080546001820154600283015460038401546004850154988501546006860154600790960154949a6001600160a01b039485169a939950918416975092909116945090929160ff1690565b6002600054141561061a5760405162461bcd60e51b815260040161058e9061144f565b60026000558161066c5760405162461bcd60e51b815260206004820152601c60248201527f5072696365206d757374206265206174206c6561737420312077656900000000604482015260640161058e565b601481106106c85760405162461bcd60e51b815260206004820152602360248201527f726f79616c74792063616e74206e6f74206265206d6f7265207468616e20203260448201526201812960ed1b606482015260840161058e565b60045434146106e95760405162461bcd60e51b815260040161058e9061140b565b6040516331a9108f60e11b8152600481018490526001600160a01b03851690636352211e9060240160206040518083038186803b15801561072957600080fd5b505afa15801561073d573d6000803e3d6000fd5b505050506040513d601f19601f82011682018060405250810190610761919061125f565b60405163589a174360e01b8152600481018590526001600160a01b039182169186169063589a17439060240160206040518083038186803b1580156107a557600080fd5b505afa1580156107b9573d6000803e3d6000fd5b505050506040513d601f19601f820116820180604052508101906107dd919061125f565b6001600160a01b0316146108035760405162461bcd60e51b815260040161058e906113bf565b610811600180546001019055565b600061081c60015490565b60408051610100810182528281526001600160a01b0388811660208084018281528486018b8152336060870181815260006080890181815260a08a018f815260c08b018f815260e08c018481528e85526005998a9052938d90209b518c55965160018c0180546001600160a01b0319908116928d16929092179055955160028c0155925160038b0180548716918b16919091179055516004808b0180549096169190991617909355519387019390935590516006860155516007909401805460ff19169415159490941790935592516323b872dd60e01b81529081019190915230602482015260448101879052919250906323b872dd90606401600060405180830381600087803b15801561093057600080fd5b505af1158015610944573d6000803e3d6000fd5b50506040805133815260006020820181905281830188905260608201879052608082015290518793506001600160a01b038916925084917fd0bb1eaea8ab6cd0c288f209757734c5e280d8f4e05f93b1db82da8db7278758919081900360a00190a450506001600055505050565b600260005414156109d55760405162461bcd60e51b815260040161058e9061144f565b6002600055600a8111610a2a5760405162461bcd60e51b815260206004820152601c60248201527f5072696365206d757374206265206174206c6561737420312077656900000000604482015260640161058e565b6004543414610a4b5760405162461bcd60e51b815260040161058e9061140b565b60008281526005602052604090819020600181015460029091015491516331a9108f60e11b815260048101929092526001600160a01b031690636352211e9060240160206040518083038186803b158015610aa557600080fd5b505afa158015610ab9573d6000803e3d6000fd5b505050506040513d601f19601f82011682018060405250810190610add919061125f565b6001600160a01b0316336001600160a01b031614610b0d5760405162461bcd60e51b815260040161058e906113bf565b60008281526005602081905260409091206003810180546001600160a01b0319908116331790915560078201805460ff191690556004820180549091169055908101829055610b5c60026111a6565b600181015460028201546040516323b872dd60e01b815233600482015230602482015260448101919091526001600160a01b03909116906323b872dd90606401600060405180830381600087803b158015610bb657600080fd5b505af1158015610bca573d6000803e3d6000fd5b505060016000555050505050565b60026000541415610bfb5760405162461bcd60e51b815260040161058e9061144f565b6002600081815582815260056020819052604090912090810154910154348214610c8f576040805162461bcd60e51b81526020600482015260248101919091527f506c65617365207375626d6974207468652061736b696e67207072696365206960448201527f6e206f7264657220746f20636f6d706c65746520746865207075726368617365606482015260840161058e565b6040516331a9108f60e11b8152600481018290526000906001600160a01b03861690636352211e9060240160206040518083038186803b158015610cd257600080fd5b505afa158015610ce6573d6000803e3d6000fd5b505050506040513d601f19601f82011682018060405250810190610d0a919061125f565b60405163589a174360e01b8152600481018490526001600160a01b039182169187169063589a17439060240160206040518083038186803b158015610d4e57600080fd5b505afa158015610d62573d6000803e3d6000fd5b505050506040513d601f19601f82011682018060405250810190610d86919061125f565b6001600160a01b031614610e7757600084815260056020526040902060060154606490610db390346114be565b610dbd919061149e565b90508015610e775760405163589a174360e01b8152600481018390526001600160a01b0386169063589a17439060240160206040518083038186803b158015610e0557600080fd5b505afa158015610e19573d6000803e3d6000fd5b505050506040513d601f19601f82011682018060405250810190610e3d919061125f565b6001600160a01b03166108fc829081150290604051600060405180830381858888f19350505050158015610e75573d6000803e3d6000fd5b505b6000848152600560205260409020600301546001600160a01b03166108fc610e9f83346114dd565b6040518115909202916000818181858888f19350505050158015610ec7573d6000803e3d6000fd5b506040516323b872dd60e01b8152306004820152336024820152604481018390526001600160a01b038616906323b872dd90606401600060405180830381600087803b158015610f1657600080fd5b505af1158015610f2a573d6000803e3d6000fd5b50505060008581526005602052604090206004810180546001600160a01b03191633179055600701805460ff1916600117905550610f6c600280546001019055565b6003546004546040516001600160a01b039092169181156108fc0291906000818181858888f19350505050158015610fa8573d6000803e3d6000fd5b5050600160005550505050565b60606000610fc260015490565b905060008060005b83811015611025573360056000610fe2846001611486565b81526020810191909152604001600020600301546001600160a01b0316141561101357611010600184611486565b92505b8061101d816114f4565b915050610fca565b5060008267ffffffffffffffff81111561104f57634e487b7160e01b600052604160045260246000fd5b60405190808252806020026020018201604052801561108857816020015b6110756111fd565b81526020019060019003908161106d5790505b50905060005b848110156103445733600560006110a6846001611486565b81526020810191909152604001600020600301546001600160a01b031614156111945760006110d6826001611486565b6000818152600560208181526040928390208351610100810185528154815260018201546001600160a01b0390811693820193909352600282015494810194909452600381015482166060850152600481015490911660808401529081015460a0830152600681015460c0830152600781015460ff16151560e083015285519293509185908790811061117957634e487b7160e01b600052603260045260246000fd5b602090810291909101015261118f600186611486565b945050505b8061119e816114f4565b91505061108e565b8054806111f55760405162461bcd60e51b815260206004820152601b60248201527f436f756e7465723a2064656372656d656e74206f766572666c6f770000000000604482015260640161058e565b600019019055565b6040518061010001604052806000815260200160006001600160a01b031681526020016000815260200160006001600160a01b0316815260200160006001600160a01b0316815260200160008152602001600081526020016000151581525090565b600060208284031215611270578081fd5b815161127b81611525565b9392505050565b60008060408385031215611294578081fd5b823561129f81611525565b946020939093013593505050565b600080600080608085870312156112c2578182fd5b84356112cd81611525565b966020860135965060408601359560600135945092505050565b6000602082840312156112f8578081fd5b5035919050565b60008060408385031215611311578182fd5b50508035926020909101359150565b602080825282518282018190526000919060409081850190868401855b828110156113b257815180518552868101516001600160a01b039081168887015286820151878701526060808301518216908701526080808301519091169086015260a0808201519086015260c0808201519086015260e090810151151590850152610100909301929085019060010161133d565b5091979650505050505050565b6020808252602c908201527f596f75206d7573742062652063726561746f72206f662074686973206e66742060408201526b746f2063616c6c207468697360a01b606082015260800190565b60208082526024908201527f5072696365206d75737420626520657175616c20746f206c697374696e6720706040820152637269636560e01b606082015260800190565b6020808252601f908201527f5265656e7472616e637947756172643a207265656e7472616e742063616c6c00604082015260600190565b600082198211156114995761149961150f565b500190565b6000826114b957634e487b7160e01b81526012600452602481fd5b500490565b60008160001904831182151516156114d8576114d861150f565b500290565b6000828210156114ef576114ef61150f565b500390565b60006000198214156115085761150861150f565b5060010190565b634e487b7160e01b600052601160045260246000fd5b6001600160a01b038116811461153a57600080fd5b5056fea26469706673582212202eaceb9e724fe90e747d2b00d282f49a7d15c4654aa205f7a47da0ed60094b4e64736f6c63430008040033",
  "linkReferences": {},
  "deployedLinkReferences": {}
}